:100000000C9450000C945F000C945F000C945F0003
:100010000C945F000C945F000C945F000C945F00E4
:100020000C945F000C945F000C945F000C945F00D4
:100030000C945F000C945F000C945F000C945F00C4
:100040000C945F000C945F000C945F000C945F00B4
:100050000C945F000C945F000C945F000C945F00A4
:100060000C945F000C945F000C945F000C945F0094
:100070000C945F000C945F000C945F000C945F0084
:100080000C945F000C945F000C945F000C945F0074
:100090000C945F000C945F000C945F000C945F0064
:1000A00011241FBECFEFCDBFDFE3DEBF0E945C0097
:0800B0000C945A00F894FFCFF4
:0600B80080E090E00895D5
:0400BE000C9400009E
:00000001FF
